{
  "contractName": "NFT",
  "abi": [
    {
      "inputs": [],
      "stateMutability": "nonpayable",
      "type": "constructor"
    },
    {
      "anonymous": false,
      "inputs": [
        {
          "indexed": true,
          "internalType": "address",
          "name": "account",
          "type": "address"
        },
        {
          "indexed": true,
          "internalType": "address",
          "name": "operator",
          "type": "address"
        },
        {
          "indexed": false,
          "internalType": "bool",
          "name": "approved",
          "type": "bool"
        }
      ],
      "name": "ApprovalForAll",
      "type": "event"
    },
    {
      "anonymous": false,
      "inputs": [
        {
          "indexed": true,
          "internalType": "bytes32",
          "name": "role",
          "type": "bytes32"
        },
        {
          "indexed": true,
          "internalType": "bytes32",
          "name": "previousAdminRole",
          "type": "bytes32"
        },
        {
          "indexed": true,
          "internalType": "bytes32",
          "name": "newAdminRole",
          "type": "bytes32"
        }
      ],
      "name": "RoleAdminChanged",
      "type": "event"
    },
    {
      "anonymous": false,
      "inputs": [
        {
          "indexed": true,
          "internalType": "bytes32",
          "name": "role",
          "type": "bytes32"
        },
        {
          "indexed": true,
          "internalType": "address",
          "name": "account",
          "type": "address"
        },
        {
          "indexed": true,
          "internalType": "address",
          "name": "sender",
          "type": "address"
        }
      ],
      "name": "RoleGranted",
      "type": "event"
    },
    {
      "anonymous": false,
      "inputs": [
        {
          "indexed": true,
          "internalType": "bytes32",
          "name": "role",
          "type": "bytes32"
        },
        {
          "indexed": true,
          "internalType": "address",
          "name": "account",
          "type": "address"
        },
        {
          "indexed": true,
          "internalType": "address",
          "name": "sender",
          "type": "address"
        }
      ],
      "name": "RoleRevoked",
      "type": "event"
    },
    {
      "anonymous": false,
      "inputs": [
        {
          "indexed": true,
          "internalType": "address",
          "name": "operator",
          "type": "address"
        },
        {
          "indexed": true,
          "internalType": "address",
          "name": "from",
          "type": "address"
        },
        {
          "indexed": true,
          "internalType": "address",
          "name": "to",
          "type": "address"
        },
        {
          "indexed": false,
          "internalType": "uint256[]",
          "name": "ids",
          "type": "uint256[]"
        },
        {
          "indexed": false,
          "internalType": "uint256[]",
          "name": "values",
          "type": "uint256[]"
        }
      ],
      "name": "TransferBatch",
      "type": "event"
    },
    {
      "anonymous": false,
      "inputs": [
        {
          "indexed": true,
          "internalType": "address",
          "name": "operator",
          "type": "address"
        },
        {
          "indexed": true,
          "internalType": "address",
          "name": "from",
          "type": "address"
        },
        {
          "indexed": true,
          "internalType": "address",
          "name": "to",
          "type": "address"
        },
        {
          "indexed": false,
          "internalType": "uint256",
          "name": "id",
          "type": "uint256"
        },
        {
          "indexed": false,
          "internalType": "uint256",
          "name": "value",
          "type": "uint256"
        }
      ],
      "name": "TransferSingle",
      "type": "event"
    },
    {
      "anonymous": false,
      "inputs": [
        {
          "indexed": false,
          "internalType": "string",
          "name": "value",
          "type": "string"
        },
        {
          "indexed": true,
          "internalType": "uint256",
          "name": "id",
          "type": "uint256"
        }
      ],
      "name": "URI",
      "type": "event"
    },
    {
      "inputs": [],
      "name": "DEFAULT_ADMIN_ROLE",
      "outputs": [
        {
          "internalType": "bytes32",
          "name": "",
          "type": "bytes32"
        }
      ],
      "stateMutability": "view",
      "type": "function",
      "constant": true
    },
    {
      "inputs": [
        {
          "internalType": "address",
          "name": "account",
          "type": "address"
        },
        {
          "internalType": "uint256",
          "name": "id",
          "type": "uint256"
        }
      ],
      "name": "balanceOf",
      "outputs": [
        {
          "internalType": "uint256",
          "name": "",
          "type": "uint256"
        }
      ],
      "stateMutability": "view",
      "type": "function",
      "constant": true
    },
    {
      "inputs": [
        {
          "internalType": "address[]",
          "name": "accounts",
          "type": "address[]"
        },
        {
          "internalType": "uint256[]",
          "name": "ids",
          "type": "uint256[]"
        }
      ],
      "name": "balanceOfBatch",
      "outputs": [
        {
          "internalType": "uint256[]",
          "name": "",
          "type": "uint256[]"
        }
      ],
      "stateMutability": "view",
      "type": "function",
      "constant": true
    },
    {
      "inputs": [
        {
          "internalType": "bytes32",
          "name": "role",
          "type": "bytes32"
        }
      ],
      "name": "getRoleAdmin",
      "outputs": [
        {
          "internalType": "bytes32",
          "name": "",
          "type": "bytes32"
        }
      ],
      "stateMutability": "view",
      "type": "function",
      "constant": true
    },
    {
      "inputs": [
        {
          "internalType": "bytes32",
          "name": "role",
          "type": "bytes32"
        },
        {
          "internalType": "address",
          "name": "account",
          "type": "address"
        }
      ],
      "name": "grantRole",
      "outputs": [],
      "stateMutability": "nonpayable",
      "type": "function"
    },
    {
      "inputs": [
        {
          "internalType": "bytes32",
          "name": "role",
          "type": "bytes32"
        },
        {
          "internalType": "address",
          "name": "account",
          "type": "address"
        }
      ],
      "name": "hasRole",
      "outputs": [
        {
          "internalType": "bool",
          "name": "",
          "type": "bool"
        }
      ],
      "stateMutability": "view",
      "type": "function",
      "constant": true
    },
    {
      "inputs": [
        {
          "internalType": "address",
          "name": "account",
          "type": "address"
        },
        {
          "internalType": "address",
          "name": "operator",
          "type": "address"
        }
      ],
      "name": "isApprovedForAll",
      "outputs": [
        {
          "internalType": "bool",
          "name": "",
          "type": "bool"
        }
      ],
      "stateMutability": "view",
      "type": "function",
      "constant": true
    },
    {
      "inputs": [
        {
          "internalType": "bytes32",
          "name": "role",
          "type": "bytes32"
        },
        {
          "internalType": "address",
          "name": "account",
          "type": "address"
        }
      ],
      "name": "renounceRole",
      "outputs": [],
      "stateMutability": "nonpayable",
      "type": "function"
    },
    {
      "inputs": [
        {
          "internalType": "bytes32",
          "name": "role",
          "type": "bytes32"
        },
        {
          "internalType": "address",
          "name": "account",
          "type": "address"
        }
      ],
      "name": "revokeRole",
      "outputs": [],
      "stateMutability": "nonpayable",
      "type": "function"
    },
    {
      "inputs": [
        {
          "internalType": "address",
          "name": "from",
          "type": "address"
        },
        {
          "internalType": "address",
          "name": "to",
          "type": "address"
        },
        {
          "internalType": "uint256[]",
          "name": "ids",
          "type": "uint256[]"
        },
        {
          "internalType": "uint256[]",
          "name": "amounts",
          "type": "uint256[]"
        },
        {
          "internalType": "bytes",
          "name": "data",
          "type": "bytes"
        }
      ],
      "name": "safeBatchTransferFrom",
      "outputs": [],
      "stateMutability": "nonpayable",
      "type": "function"
    },
    {
      "inputs": [
        {
          "internalType": "address",
          "name": "from",
          "type": "address"
        },
        {
          "internalType": "address",
          "name": "to",
          "type": "address"
        },
        {
          "internalType": "uint256",
          "name": "id",
          "type": "uint256"
        },
        {
          "internalType": "uint256",
          "name": "amount",
          "type": "uint256"
        },
        {
          "internalType": "bytes",
          "name": "data",
          "type": "bytes"
        }
      ],
      "name": "safeTransferFrom",
      "outputs": [],
      "stateMutability": "nonpayable",
      "type": "function"
    },
    {
      "inputs": [
        {
          "internalType": "address",
          "name": "operator",
          "type": "address"
        },
        {
          "internalType": "bool",
          "name": "approved",
          "type": "bool"
        }
      ],
      "name": "setApprovalForAll",
      "outputs": [],
      "stateMutability": "nonpayable",
      "type": "function"
    },
    {
      "inputs": [
        {
          "internalType": "uint256",
          "name": "",
          "type": "uint256"
        }
      ],
      "name": "uri",
      "outputs": [
        {
          "internalType": "string",
          "name": "",
          "type": "string"
        }
      ],
      "stateMutability": "view",
      "type": "function",
      "constant": true
    },
    {
      "inputs": [
        {
          "internalType": "uint256",
          "name": "amount",
          "type": "uint256"
        }
      ],
      "name": "mint",
      "outputs": [],
      "stateMutability": "nonpayable",
      "type": "function"
    },
    {
      "inputs": [
        {
          "internalType": "uint256[]",
          "name": "amounts",
          "type": "uint256[]"
        }
      ],
      "name": "minBatch",
      "outputs": [],
      "stateMutability": "nonpayable",
      "type": "function"
    },
    {
      "inputs": [
        {
          "internalType": "bytes4",
          "name": "interfaceId",
          "type": "bytes4"
        }
      ],
      "name": "supportsInterface",
      "outputs": [
        {
          "internalType": "bool",
          "name": "",
          "type": "bool"
        }
      ],
      "stateMutability": "view",
      "type": "function",
      "constant": true
    }
  ],
  "bytecode": "0x60806040523480156200001157600080fd5b506040518060a001604052806063815260200162003719606391396200003d816200005960201b60201c565b50620000536000801b336200007560201b60201c565b620002ee565b806002908051906020019062000071929190620001da565b5050565b6200008782826200016760201b60201c565b620001635760016003600084815260200190815260200160002060000160008373ffffffffffffffffffffffffffffffffffffffff1673ffffffffffffffffffffffffffffffffffffffff16815260200190815260200160002060006101000a81548160ff02191690831515021790555062000108620001d260201b60201c565b73ffffffffffffffffffffffffffffffffffffffff168173ffffffffffffffffffffffffffffffffffffffff16837f2f8788117e7eff1d82e926ec794901d17c78024a50270940304540a733656f0d60405160405180910390a45b5050565b60006003600084815260200190815260200160002060000160008373ffffffffffffffffffffffffffffffffffffffff1673ffffffffffffffffffffffffffffffffffffffff16815260200190815260200160002060009054906101000a900460ff16905092915050565b600033905090565b828054620001e890620002b9565b90600052602060002090601f0160209004810192826200020c576000855562000258565b82601f106200022757805160ff191683800117855562000258565b8280016001018555821562000258579182015b82811115620002575782518255916020019190600101906200023a565b5b5090506200026791906200026b565b5090565b5b80821115620002865760008160009055506001016200026c565b5090565b7f4e487b7100000000000000000000000000000000000000000000000000000000600052602260045260246000fd5b60006002820490506001821680620002d257607f821691505b602082108103620002e857620002e76200028a565b5b50919050565b61341b80620002fe6000396000f3fe608060405234801561001057600080fd5b50600436106100ff5760003560e01c8063916cc37511610097578063a22cb46511610066578063a22cb465146102ce578063d547741f146102ea578063e985e9c514610306578063f242432a14610336576100ff565b8063916cc3751461024857806391d1485414610264578063a0712d6814610294578063a217fddf146102b0576100ff565b80632eb2c2d6116100d35780632eb2c2d6146101c45780632f2ff15d146101e057806336568abe146101fc5780634e1273f414610218576100ff565b8062fdd58e1461010457806301ffc9a7146101345780630e89341c14610164578063248a9ca314610194575b600080fd5b61011e60048036038101906101199190611e72565b610352565b60405161012b9190611ec1565b60405180910390f35b61014e60048036038101906101499190611f34565b61041a565b60405161015b9190611f7c565b60405180910390f35b61017e60048036038101906101799190611f97565b61042c565b60405161018b919061205d565b60405180910390f35b6101ae60048036038101906101a991906120b5565b6104c0565b6040516101bb91906120f1565b60405180910390f35b6101de60048036038101906101d99190612309565b6104e0565b005b6101fa60048036038101906101f591906123d8565b610581565b005b610216600480360381019061021191906123d8565b6105a2565b005b610232600480360381019061022d91906124db565b610625565b60405161023f9190612611565b60405180910390f35b610262600480360381019061025d9190612633565b61073e565b005b61027e600480360381019061027991906123d8565b6107bd565b60405161028b9190611f7c565b60405180910390f35b6102ae60048036038101906102a99190611f97565b610828565b005b6102b861086d565b6040516102c591906120f1565b60405180910390f35b6102e860048036038101906102e391906126a8565b610874565b005b61030460048036038101906102ff91906123d8565b61088a565b005b610320600480360381019061031b91906126e8565b6108ab565b60405161032d9190611f7c565b60405180910390f35b610350600480360381019061034b9190612728565b61093f565b005b60008073ffffffffffffffffffffffffffffffffffffffff168373ffffffffffffffffffffffffffffffffffffffff16036103c2576040517f08c379a00000000000000000000000000000000000000000000000000000000081526004016103b990612831565b60405180910390fd5b60008083815260200190815260200160002060008473ffffffffffffffffffffffffffffffffffffffff1673ffffffffffffffffffffffffffffffffffffffff16815260200190815260200160002054905092915050565b6000610425826109e0565b9050919050565b60606002805461043b90612880565b80601f016020809104026020016040519081016040528092919081815260200182805461046790612880565b80156104b45780601f10610489576101008083540402835291602001916104b4565b820191906000526020600020905b81548152906001019060200180831161049757829003601f168201915b50505050509050919050565b600060036000838152602001908152602001600020600101549050919050565b6104e8610a5a565b73ffffffffffffffffffffffffffffffffffffffff168573ffffffffffffffffffffffffffffffffffffffff16148061052e575061052d85610528610a5a565b6108ab565b5b61056d576040517f08c379a000000000000000000000000000000000000000000000000000000000815260040161056490612923565b60405180910390fd5b61057a8585858585610a62565b5050505050565b61058a826104c0565b61059381610d83565b61059d8383610d97565b505050565b6105aa610a5a565b73ffffffffffffffffffffffffffffffffffffffff168173ffffffffffffffffffffffffffffffffffffffff1614610617576040517f08c379a000000000000000000000000000000000000000000000000000000000815260040161060e906129b5565b60405180910390fd5b6106218282610e78565b5050565b6060815183511461066b576040517f08c379a000000000000000000000000000000000000000000000000000000000815260040161066290612a47565b60405180910390fd5b6000835167ffffffffffffffff81111561068857610687612111565b5b6040519080825280602002602001820160405280156106b65781602001602082028036833780820191505090505b50905060005b8451811015610733576107038582815181106106db576106da612a67565b5b60200260200101518583815181106106f6576106f5612a67565b5b6020026020010151610352565b82828151811061071657610715612a67565b5b6020026020010181815250508061072c90612ac5565b90506106bc565b508091505092915050565b6000801b61074b81610d83565b60005b82518110156107b85760006107636004610f5a565b905061079a338286858151811061077d5761077c612a67565b5b602002602001015160405180602001604052806000815250610f68565b6107a46004611118565b5080806107b090612ac5565b91505061074e565b505050565b60006003600084815260200190815260200160002060000160008373ffffffffffffffffffffffffffffffffffffffff1673ffffffffffffffffffffffffffffffffffffffff16815260200190815260200160002060009054906101000a900460ff16905092915050565b6000801b61083581610d83565b60006108416004610f5a565b905061085e33828560405180602001604052806000815250610f68565b6108686004611118565b505050565b6000801b81565b61088661087f610a5a565b838361112e565b5050565b610893826104c0565b61089c81610d83565b6108a68383610e78565b505050565b6000600160008473ffffffffffffffffffffffffffffffffffffffff1673ffffffffffffffffffffffffffffffffffffffff16815260200190815260200160002060008373ffffffffffffffffffffffffffffffffffffffff1673ffffffffffffffffffffffffffffffffffffffff16815260200190815260200160002060009054906101000a900460ff16905092915050565b610947610a5a565b73ffffffffffffffffffffffffffffffffffffffff168573ffffffffffffffffffffffffffffffffffffffff16148061098d575061098c85610987610a5a565b6108ab565b5b6109cc576040517f08c379a00000000000000000000000000000000000000000000000000000000081526004016109c390612923565b60405180910390fd5b6109d9858585858561129a565b5050505050565b60007f7965db0b000000000000000000000000000000000000000000000000000000007bffffffffffffffffffffffffffffffffffffffffffffffffffffffff1916827bffffffffffffffffffffffffffffffffffffffffffffffffffffffff19161480610a535750610a5282611535565b5b9050919050565b600033905090565b8151835114610aa6576040517f08c379a0000000000000000000000000000000000000000000000000000000008152600401610a9d90612b7f565b60405180910390fd5b600073ffffffffffffffffffffffffffffffffffffffff168473ffffffffffffffffffffffffffffffffffffffff1603610b15576040517f08c379a0000000000000000000000000000000000000000000000000000000008152600401610b0c90612c11565b60405180910390fd5b6000610b1f610a5a565b9050610b2f818787878787611617565b60005b8451811015610ce0576000858281518110610b5057610b4f612a67565b5b602002602001015190506000858381518110610b6f57610b6e612a67565b5b60200260200101519050600080600084815260200190815260200160002060008b73ffffffffffffffffffffffffffffffffffffffff1673ffffffffffffffffffffffffffffffffffffffff16815260200190815260200160002054905081811015610c10576040517f08c379a0000000000000000000000000000000000000000000000000000000008152600401610c0790612ca3565b60405180910390fd5b81810360008085815260200190815260200160002060008c73ffffffffffffffffffffffffffffffffffffffff1673ffffffffffffffffffffffffffffffffffffffff168152602001908152602001600020819055508160008085815260200190815260200160002060008b73ffffffffffffffffffffffffffffffffffffffff1673ffffffffffffffffffffffffffffffffffffffff1681526020019081526020016000206000828254610cc59190612cc3565b9250508190555050505080610cd990612ac5565b9050610b32565b508473ffffffffffffffffffffffffffffffffffffffff168673ffffffffffffffffffffffffffffffffffffffff168273ffffffffffffffffffffffffffffffffffffffff167f4a39dc06d4c0dbc64b70af90fd698a233a518aa5d07e595d983b8c0526c8f7fb8787604051610d57929190612d19565b60405180910390a4610d6d81878787878761161f565b610d7b818787878787611627565b505050505050565b610d9481610d8f610a5a565b6117fe565b50565b610da182826107bd565b610e745760016003600084815260200190815260200160002060000160008373ffffffffffffffffffffffffffffffffffffffff1673ffffffffffffffffffffffffffffffffffffffff16815260200190815260200160002060006101000a81548160ff021916908315150217905550610e19610a5a565b73ffffffffffffffffffffffffffffffffffffffff168173ffffffffffffffffffffffffffffffffffffffff16837f2f8788117e7eff1d82e926ec794901d17c78024a50270940304540a733656f0d60405160405180910390a45b5050565b610e8282826107bd565b15610f565760006003600084815260200190815260200160002060000160008373ffffffffffffffffffffffffffffffffffffffff1673ffffffffffffffffffffffffffffffffffffffff16815260200190815260200160002060006101000a81548160ff021916908315150217905550610efb610a5a565b73ffffffffffffffffffffffffffffffffffffffff168173ffffffffffffffffffffffffffffffffffffffff16837ff6391f5c32d9c69d2a47ea670b442974b53935d1edc7fd64eb21e047a839171b60405160405180910390a45b5050565b600081600001549050919050565b600073ffffffffffffffffffffffffffffffffffffffff168473ffffffffffffffffffffffffffffffffffffffff1603610fd7576040517f08c379a0000000000000000000000000000000000000000000000000000000008152600401610fce90612dc2565b60405180910390fd5b6000610fe1610a5a565b90506000610fee85611883565b90506000610ffb85611883565b905061100c83600089858589611617565b8460008088815260200190815260200160002060008973ffffffffffffffffffffffffffffffffffffffff1673ffffffffffffffffffffffffffffffffffffffff168152602001908152602001600020600082825461106b9190612cc3565b925050819055508673ffffffffffffffffffffffffffffffffffffffff16600073ffffffffffffffffffffffffffffffffffffffff168473ffffffffffffffffffffffffffffffffffffffff167fc3d58168c5ae7397731d063d5bbf3d657854427343f4c083240f7aacaa2d0f6289896040516110e9929190612de2565b60405180910390a46111008360008985858961161f565b61110f836000898989896118fd565b50505050505050565b6001816000016000828254019250508190555050565b8173ffffffffffffffffffffffffffffffffffffffff168373ffffffffffffffffffffffffffffffffffffffff160361119c576040517f08c379a000000000000000000000000000000000000000000000000000000000815260040161119390612e7d565b60405180910390fd5b80600160008573ffffffffffffffffffffffffffffffffffffffff1673ffffffffffffffffffffffffffffffffffffffff16815260200190815260200160002060008473ffffffffffffffffffffffffffffffffffffffff1673ffffffffffffffffffffffffffffffffffffffff16815260200190815260200160002060006101000a81548160ff0219169083151502179055508173ffffffffffffffffffffffffffffffffffffffff168373ffffffffffffffffffffffffffffffffffffffff167f17307eab39ab6107e8899845ad3d59bd9653f200f220920489ca2b5937696c318360405161128d9190611f7c565b60405180910390a3505050565b600073ffffffffffffffffffffffffffffffffffffffff168473ffffffffffffffffffffffffffffffffffffffff1603611309576040517f08c379a000000000000000000000000000000000000000000000000000000000815260040161130090612c11565b60405180910390fd5b6000611313610a5a565b9050600061132085611883565b9050600061132d85611883565b905061133d838989858589611617565b600080600088815260200190815260200160002060008a73ffffffffffffffffffffffffffffffffffffffff1673ffffffffffffffffffffffffffffffffffffffff168152602001908152602001600020549050858110156113d4576040517f08c379a00000000000000000000000000000000000000000000000000000000081526004016113cb90612ca3565b60405180910390fd5b85810360008089815260200190815260200160002060008b73ffffffffffffffffffffffffffffffffffffffff1673ffffffffffffffffffffffffffffffffffffffff168152602001908152602001600020819055508560008089815260200190815260200160002060008a73ffffffffffffffffffffffffffffffffffffffff1673ffffffffffffffffffffffffffffffffffffffff16815260200190815260200160002060008282546114899190612cc3565b925050819055508773ffffffffffffffffffffffffffffffffffffffff168973ffffffffffffffffffffffffffffffffffffffff168573ffffffffffffffffffffffffffffffffffffffff167fc3d58168c5ae7397731d063d5bbf3d657854427343f4c083240f7aacaa2d0f628a8a604051611506929190612de2565b60405180910390a461151c848a8a86868a61161f565b61152a848a8a8a8a8a6118fd565b505050505050505050565b60007fd9b67a26000000000000000000000000000000000000000000000000000000007bffffffffffffffffffffffffffffffffffffffffffffffffffffffff1916827bffffffffffffffffffffffffffffffffffffffffffffffffffffffff1916148061160057507f0e89341c000000000000000000000000000000000000000000000000000000007bffffffffffffffffffffffffffffffffffffffffffffffffffffffff1916827bffffffffffffffffffffffffffffffffffffffffffffffffffffffff1916145b80611610575061160f82611ad4565b5b9050919050565b505050505050565b505050505050565b6116468473ffffffffffffffffffffffffffffffffffffffff16611b3e565b156117f6578373ffffffffffffffffffffffffffffffffffffffff1663bc197c8187878686866040518663ffffffff1660e01b815260040161168c959493929190612f01565b6020604051808303816000875af19250505080156116c857506040513d601f19601f820116820180604052508101906116c59190612f7e565b60015b61176d576116d4612fb8565b806308c379a00361173057506116e8612fda565b806116f35750611732565b806040517f08c379a0000000000000000000000000000000000000000000000000000000008152600401611727919061205d565b60405180910390fd5b505b6040517f08c379a0000000000000000000000000000000000000000000000000000000008152600401611764906130dc565b60405180910390fd5b63bc197c8160e01b7bffffffffffffffffffffffffffffffffffffffffffffffffffffffff1916817bffffffffffffffffffffffffffffffffffffffffffffffffffffffff1916146117f4576040517f08c379a00000000000000000000000000000000000000000000000000000000081526004016117eb9061316e565b60405180910390fd5b505b505050505050565b61180882826107bd565b61187f5761181581611b61565b6118238360001c6020611b8e565b604051602001611834929190613262565b6040516020818303038152906040526040517f08c379a0000000000000000000000000000000000000000000000000000000008152600401611876919061205d565b60405180910390fd5b5050565b60606000600167ffffffffffffffff8111156118a2576118a1612111565b5b6040519080825280602002602001820160405280156118d05781602001602082028036833780820191505090505b50905082816000815181106118e8576118e7612a67565b5b60200260200101818152505080915050919050565b61191c8473ffffffffffffffffffffffffffffffffffffffff16611b3e565b15611acc578373ffffffffffffffffffffffffffffffffffffffff1663f23a6e6187878686866040518663ffffffff1660e01b815260040161196295949392919061329c565b6020604051808303816000875af192505050801561199e57506040513d601f19601f8201168201806040525081019061199b9190612f7e565b60015b611a43576119aa612fb8565b806308c379a003611a0657506119be612fda565b806119c95750611a08565b806040517f08c379a00000000000000000000000000000000000000000000000000000000081526004016119fd919061205d565b60405180910390fd5b505b6040517f08c379a0000000000000000000000000000000000000000000000000000000008152600401611a3a906130dc565b60405180910390fd5b63f23a6e6160e01b7bffffffffffffffffffffffffffffffffffffffffffffffffffffffff1916817bffffffffffffffffffffffffffffffffffffffffffffffffffffffff191614611aca576040517f08c379a0000000000000000000000000000000000000000000000000000000008152600401611ac19061316e565b60405180910390fd5b505b505050505050565b60007f01ffc9a7000000000000000000000000000000000000000000000000000000007bffffffffffffffffffffffffffffffffffffffffffffffffffffffff1916827bffffffffffffffffffffffffffffffffffffffffffffffffffffffff1916149050919050565b6000808273ffffffffffffffffffffffffffffffffffffffff163b119050919050565b6060611b878273ffffffffffffffffffffffffffffffffffffffff16601460ff16611b8e565b9050919050565b606060006002836002611ba191906132f6565b611bab9190612cc3565b67ffffffffffffffff811115611bc457611bc3612111565b5b6040519080825280601f01601f191660200182016040528015611bf65781602001600182028036833780820191505090505b5090507f300000000000000000000000000000000000000000000000000000000000000081600081518110611c2e57611c2d612a67565b5b60200101907effffffffffffffffffffffffffffffffffffffffffffffffffffffffffffff1916908160001a9053507f780000000000000000000000000000000000000000000000000000000000000081600181518110611c9257611c91612a67565b5b60200101907effffffffffffffffffffffffffffffffffffffffffffffffffffffffffffff1916908160001a90535060006001846002611cd291906132f6565b611cdc9190612cc3565b90505b6001811115611d7c577f3031323334353637383961626364656600000000000000000000000000000000600f861660108110611d1e57611d1d612a67565b5b1a60f81b828281518110611d3557611d34612a67565b5b60200101907effffffffffffffffffffffffffffffffffffffffffffffffffffffffffffff1916908160001a905350600485901c945080611d7590613350565b9050611cdf565b5060008414611dc0576040517f08c379a0000000000000000000000000000000000000000000000000000000008152600401611db7906133c5565b60405180910390fd5b8091505092915050565b6000604051905090565b600080fd5b600080fd5b600073ffffffffffffffffffffffffffffffffffffffff82169050919050565b6000611e0982611dde565b9050919050565b611e1981611dfe565b8114611e2457600080fd5b50565b600081359050611e3681611e10565b92915050565b6000819050919050565b611e4f81611e3c565b8114611e5a57600080fd5b50565b600081359050611e6c81611e46565b92915050565b60008060408385031215611e8957611e88611dd4565b5b6000611e9785828601611e27565b9250506020611ea885828601611e5d565b9150509250929050565b611ebb81611e3c565b82525050565b6000602082019050611ed66000830184611eb2565b92915050565b60007fffffffff0000000000000000000000000000000000000000000000000000000082169050919050565b611f1181611edc565b8114611f1c57600080fd5b50565b600081359050611f2e81611f08565b92915050565b600060208284031215611f4a57611f49611dd4565b5b6000611f5884828501611f1f565b91505092915050565b60008115159050919050565b611f7681611f61565b82525050565b6000602082019050611f916000830184611f6d565b92915050565b600060208284031215611fad57611fac611dd4565b5b6000611fbb84828501611e5d565b91505092915050565b600081519050919050565b600082825260208201905092915050565b60005b83811015611ffe578082015181840152602081019050611fe3565b8381111561200d576000848401525b50505050565b6000601f19601f8301169050919050565b600061202f82611fc4565b6120398185611fcf565b9350612049818560208601611fe0565b61205281612013565b840191505092915050565b600060208201905081810360008301526120778184612024565b905092915050565b6000819050919050565b6120928161207f565b811461209d57600080fd5b50565b6000813590506120af81612089565b92915050565b6000602082840312156120cb576120ca611dd4565b5b60006120d9848285016120a0565b91505092915050565b6120eb8161207f565b82525050565b600060208201905061210660008301846120e2565b92915050565b600080fd5b7f4e487b7100000000000000000000000000000000000000000000000000000000600052604160045260246000fd5b61214982612013565b810181811067ffffffffffffffff8211171561216857612167612111565b5b80604052505050565b600061217b611dca565b90506121878282612140565b919050565b600067ffffffffffffffff8211156121a7576121a6612111565b5b602082029050602081019050919050565b600080fd5b60006121d06121cb8461218c565b612171565b905080838252602082019050602084028301858111156121f3576121f26121b8565b5b835b8181101561221c57806122088882611e5d565b8452602084019350506020810190506121f5565b5050509392505050565b600082601f83011261223b5761223a61210c565b5b813561224b8482602086016121bd565b91505092915050565b600080fd5b600067ffffffffffffffff82111561227457612273612111565b5b61227d82612013565b9050602081019050919050565b82818337600083830152505050565b60006122ac6122a784612259565b612171565b9050828152602081018484840111156122c8576122c7612254565b5b6122d384828561228a565b509392505050565b600082601f8301126122f0576122ef61210c565b5b8135612300848260208601612299565b91505092915050565b600080600080600060a0868803121561232557612324611dd4565b5b600061233388828901611e27565b955050602061234488828901611e27565b945050604086013567ffffffffffffffff81111561236557612364611dd9565b5b61237188828901612226565b935050606086013567ffffffffffffffff81111561239257612391611dd9565b5b61239e88828901612226565b925050608086013567ffffffffffffffff8111156123bf576123be611dd9565b5b6123cb888289016122db565b9150509295509295909350565b600080604083850312156123ef576123ee611dd4565b5b60006123fd858286016120a0565b925050602061240e85828601611e27565b9150509250929050565b600067ffffffffffffffff82111561243357612432612111565b5b602082029050602081019050919050565b600061245761245284612418565b612171565b9050808382526020820190506020840283018581111561247a576124796121b8565b5b835b818110156124a3578061248f8882611e27565b84526020840193505060208101905061247c565b5050509392505050565b600082601f8301126124c2576124c161210c565b5b81356124d2848260208601612444565b91505092915050565b600080604083850312156124f2576124f1611dd4565b5b600083013567ffffffffffffffff8111156125105761250f611dd9565b5b61251c858286016124ad565b925050602083013567ffffffffffffffff81111561253d5761253c611dd9565b5b61254985828601612226565b9150509250929050565b600081519050919050565b600082825260208201905092915050565b6000819050602082019050919050565b61258881611e3c565b82525050565b600061259a838361257f565b60208301905092915050565b6000602082019050919050565b60006125be82612553565b6125c8818561255e565b93506125d38361256f565b8060005b838110156126045781516125eb888261258e565b97506125f6836125a6565b9250506001810190506125d7565b5085935050505092915050565b6000602082019050818103600083015261262b81846125b3565b905092915050565b60006020828403121561264957612648611dd4565b5b600082013567ffffffffffffffff81111561266757612666611dd9565b5b61267384828501612226565b91505092915050565b61268581611f61565b811461269057600080fd5b50565b6000813590506126a28161267c565b92915050565b600080604083850312156126bf576126be611dd4565b5b60006126cd85828601611e27565b92505060206126de85828601612693565b9150509250929050565b600080604083850312156126ff576126fe611dd4565b5b600061270d85828601611e27565b925050602061271e85828601611e27565b9150509250929050565b600080600080600060a0868803121561274457612743611dd4565b5b600061275288828901611e27565b955050602061276388828901611e27565b945050604061277488828901611e5d565b935050606061278588828901611e5d565b925050608086013567ffffffffffffffff8111156127a6576127a5611dd9565b5b6127b2888289016122db565b9150509295509295909350565b7f455243313135353a2061646472657373207a65726f206973206e6f742061207660008201527f616c6964206f776e657200000000000000000000000000000000000000000000602082015250565b600061281b602a83611fcf565b9150612826826127bf565b604082019050919050565b6000602082019050818103600083015261284a8161280e565b9050919050565b7f4e487b7100000000000000000000000000000000000000000000000000000000600052602260045260246000fd5b6000600282049050600182168061289857607f821691505b6020821081036128ab576128aa612851565b5b50919050565b7f455243313135353a2063616c6c6572206973206e6f7420746f6b656e206f776e60008201527f6572206f7220617070726f766564000000000000000000000000000000000000602082015250565b600061290d602e83611fcf565b9150612918826128b1565b604082019050919050565b6000602082019050818103600083015261293c81612900565b9050919050565b7f416363657373436f6e74726f6c3a2063616e206f6e6c792072656e6f756e636560008201527f20726f6c657320666f722073656c660000000000000000000000000000000000602082015250565b600061299f602f83611fcf565b91506129aa82612943565b604082019050919050565b600060208201905081810360008301526129ce81612992565b9050919050565b7f455243313135353a206163636f756e747320616e6420696473206c656e67746860008201527f206d69736d617463680000000000000000000000000000000000000000000000602082015250565b6000612a31602983611fcf565b9150612a3c826129d5565b604082019050919050565b60006020820190508181036000830152612a6081612a24565b9050919050565b7f4e487b7100000000000000000000000000000000000000000000000000000000600052603260045260246000fd5b7f4e487b7100000000000000000000000000000000000000000000000000000000600052601160045260246000fd5b6000612ad082611e3c565b91507fffffffffffffffffffffffffffffffffffffffffffffffffffffffffffffffff8203612b0257612b01612a96565b5b600182019050919050565b7f455243313135353a2069647320616e6420616d6f756e7473206c656e6774682060008201527f6d69736d61746368000000000000000000000000000000000000000000000000602082015250565b6000612b69602883611fcf565b9150612b7482612b0d565b604082019050919050565b60006020820190508181036000830152612b9881612b5c565b9050919050565b7f455243313135353a207472616e7366657220746f20746865207a65726f20616460008201527f6472657373000000000000000000000000000000000000000000000000000000602082015250565b6000612bfb602583611fcf565b9150612c0682612b9f565b604082019050919050565b60006020820190508181036000830152612c2a81612bee565b9050919050565b7f455243313135353a20696e73756666696369656e742062616c616e636520666f60008201527f72207472616e7366657200000000000000000000000000000000000000000000602082015250565b6000612c8d602a83611fcf565b9150612c9882612c31565b604082019050919050565b60006020820190508181036000830152612cbc81612c80565b9050919050565b6000612cce82611e3c565b9150612cd983611e3c565b9250827fffffffffffffffffffffffffffffffffffffffffffffffffffffffffffffffff03821115612d0e57612d0d612a96565b5b828201905092915050565b60006040820190508181036000830152612d3381856125b3565b90508181036020830152612d4781846125b3565b90509392505050565b7f455243313135353a206d696e7420746f20746865207a65726f2061646472657360008201527f7300000000000000000000000000000000000000000000000000000000000000602082015250565b6000612dac602183611fcf565b9150612db782612d50565b604082019050919050565b60006020820190508181036000830152612ddb81612d9f565b9050919050565b6000604082019050612df76000830185611eb2565b612e046020830184611eb2565b9392505050565b7f455243313135353a2073657474696e6720617070726f76616c2073746174757360008201527f20666f722073656c660000000000000000000000000000000000000000000000602082015250565b6000612e67602983611fcf565b9150612e7282612e0b565b604082019050919050565b60006020820190508181036000830152612e9681612e5a565b9050919050565b612ea681611dfe565b82525050565b600081519050919050565b600082825260208201905092915050565b6000612ed382612eac565b612edd8185612eb7565b9350612eed818560208601611fe0565b612ef681612013565b840191505092915050565b600060a082019050612f166000830188612e9d565b612f236020830187612e9d565b8181036040830152612f3581866125b3565b90508181036060830152612f4981856125b3565b90508181036080830152612f5d8184612ec8565b90509695505050505050565b600081519050612f7881611f08565b92915050565b600060208284031215612f9457612f93611dd4565b5b6000612fa284828501612f69565b91505092915050565b60008160e01c9050919050565b600060033d1115612fd75760046000803e612fd4600051612fab565b90505b90565b600060443d1061306757612fec611dca565b60043d036004823e80513d602482011167ffffffffffffffff82111715613014575050613067565b808201805167ffffffffffffffff8111156130325750505050613067565b80602083010160043d03850181111561304f575050505050613067565b61305e82602001850186612140565b82955050505050505b90565b7f455243313135353a207472616e7366657220746f206e6f6e2d4552433131353560008201527f526563656976657220696d706c656d656e746572000000000000000000000000602082015250565b60006130c6603483611fcf565b91506130d18261306a565b604082019050919050565b600060208201905081810360008301526130f5816130b9565b9050919050565b7f455243313135353a204552433131353552656365697665722072656a6563746560008201527f6420746f6b656e73000000000000000000000000000000000000000000000000602082015250565b6000613158602883611fcf565b9150613163826130fc565b604082019050919050565b600060208201905081810360008301526131878161314b565b9050919050565b600081905092915050565b7f416363657373436f6e74726f6c3a206163636f756e7420000000000000000000600082015250565b60006131cf60178361318e565b91506131da82613199565b601782019050919050565b60006131f082611fc4565b6131fa818561318e565b935061320a818560208601611fe0565b80840191505092915050565b7f206973206d697373696e6720726f6c6520000000000000000000000000000000600082015250565b600061324c60118361318e565b915061325782613216565b601182019050919050565b600061326d826131c2565b915061327982856131e5565b91506132848261323f565b915061329082846131e5565b91508190509392505050565b600060a0820190506132b16000830188612e9d565b6132be6020830187612e9d565b6132cb6040830186611eb2565b6132d86060830185611eb2565b81810360808301526132ea8184612ec8565b90509695505050505050565b600061330182611e3c565b915061330c83611e3c565b9250817fffffffffffffffffffffffffffffffffffffffffffffffffffffffffffffffff048311821515161561334557613344612a96565b5b828202905092915050565b600061335b82611e3c565b91506000820361336e5761336d612a96565b5b600182039050919050565b7f537472696e67733a20686578206c656e67746820696e73756666696369656e74600082015250565b60006133af602083611fcf565b91506133ba82613379565b602082019050919050565b600060208201905081810360008301526133de816133a2565b905091905056fea264697066735822122094c7233cfa5e9cae04e3b45ff0549370794fc4d959b58f37ccbdd8ed4bd842a164736f6c634300080d003368747470733a2f2f626166796265696470647664347a62346d71626c37376f71746f6f7a746475667464626d32697a3771363464636f62776172626d6b6267356a70692e697066732e7733732e6c696e6b2f4e46545f6d657461646174612e6a736f6e",
  "immutableReferences": {},
  "source": "// SPDX-License-Identifier: MIT\npragma solidity ^0.8.0;\n\nimport \"../node_modules/@openzeppelin/contracts/token/ERC1155/ERC1155.sol\";\nimport \"../node_modules/@openzeppelin/contracts/access/AccessControl.sol\";\nimport \"../node_modules/@openzeppelin/contracts/utils/Counters.sol\";\n\n\ncontract NFT is ERC1155, AccessControl{\n    using Counters for Counters.Counter;\n    Counters.Counter private idCounter;\n\n    constructor() ERC1155(\"https://bafybeidpdvd4zb4mqbl77oqtooztduftdbm2iz7q64dcobwarbmkbg5jpi.ipfs.w3s.link/NFT_metadata.json\") {\n        _grantRole(DEFAULT_ADMIN_ROLE, msg.sender);\n    }\n\n    function mint(uint amount) external  onlyRole(DEFAULT_ADMIN_ROLE) {\n        uint token = idCounter.current();\n        _mint(msg.sender, token, amount, \"\");\n        idCounter.increment();\n    }\n\n    function minBatch(uint256[] memory amounts) external onlyRole(DEFAULT_ADMIN_ROLE) {\n        for(uint i = 0; i < amounts.length; i++){\n            uint token = idCounter.current();\n            _mint(msg.sender, token, amounts[i], \"\");\n            idCounter.increment();\n        }\n    }\n\n    function supportsInterface(bytes4 interfaceId) public view override(ERC1155, AccessControl) returns (bool) {\n        return super.supportsInterface(interfaceId);\n    }\n}\n",
  "sourcePath": "/Users/akshatagarwal/Desktop/Blockchain/lab9/contracts/NFT.sol",
  "compiler": {
    "name": "solc",
    "version": "0.8.13+commit.abaa5c0e.Emscripten.clang"
  },
  "schemaVersion": "3.4.13",
  "updatedAt": "2023-03-29T09:51:32.333Z",
  "networkType": "ethereum",
  "devdoc": {
    "kind": "dev",
    "methods": {
      "balanceOf(address,uint256)": {
        "details": "See {IERC1155-balanceOf}. Requirements: - `account` cannot be the zero address."
      },
      "balanceOfBatch(address[],uint256[])": {
        "details": "See {IERC1155-balanceOfBatch}. Requirements: - `accounts` and `ids` must have the same length."
      },
      "getRoleAdmin(bytes32)": {
        "details": "Returns the admin role that controls `role`. See {grantRole} and {revokeRole}. To change a role's admin, use {_setRoleAdmin}."
      },
      "grantRole(bytes32,address)": {
        "details": "Grants `role` to `account`. If `account` had not been already granted `role`, emits a {RoleGranted} event. Requirements: - the caller must have ``role``'s admin role. May emit a {RoleGranted} event."
      },
      "hasRole(bytes32,address)": {
        "details": "Returns `true` if `account` has been granted `role`."
      },
      "isApprovedForAll(address,address)": {
        "details": "See {IERC1155-isApprovedForAll}."
      },
      "renounceRole(bytes32,address)": {
        "details": "Revokes `role` from the calling account. Roles are often managed via {grantRole} and {revokeRole}: this function's purpose is to provide a mechanism for accounts to lose their privileges if they are compromised (such as when a trusted device is misplaced). If the calling account had been revoked `role`, emits a {RoleRevoked} event. Requirements: - the caller must be `account`. May emit a {RoleRevoked} event."
      },
      "revokeRole(bytes32,address)": {
        "details": "Revokes `role` from `account`. If `account` had been granted `role`, emits a {RoleRevoked} event. Requirements: - the caller must have ``role``'s admin role. May emit a {RoleRevoked} event."
      },
      "safeBatchTransferFrom(address,address,uint256[],uint256[],bytes)": {
        "details": "See {IERC1155-safeBatchTransferFrom}."
      },
      "safeTransferFrom(address,address,uint256,uint256,bytes)": {
        "details": "See {IERC1155-safeTransferFrom}."
      },
      "setApprovalForAll(address,bool)": {
        "details": "See {IERC1155-setApprovalForAll}."
      },
      "uri(uint256)": {
        "details": "See {IERC1155MetadataURI-uri}. This implementation returns the same URI for *all* token types. It relies on the token type ID substitution mechanism https://eips.ethereum.org/EIPS/eip-1155#metadata[defined in the EIP]. Clients calling this function must replace the `\\{id\\}` substring with the actual token type ID."
      }
    },
    "version": 1
  },
  "userdoc": {
    "kind": "user",
    "methods": {},
    "version": 1
  }
}